:100000000C942A000C949C070C94C9070C94F607D6
:100010000C9447000C9447000C9447000C94470044
:100020000C9447000C9447000C9447000C94470034
:100030000C9447000C9447000C9447000C94470024
:100040000C9447000C9447000C9447000C94470014
:100050000C94470011241FBECFE5D8E0DEBFCDBF12
:1000600011E0A0E6B0E0EAE5F0E102C005900D92F3
:10007000A034B107D9F721E0A0E4B1E001C01D929E
:10008000A235B207E1F70E94E8050C942B080C9406
:10009000000081E080934001089582E08093400158
:1000A00008950E942703209151018091500190E012
:1000B000820F911D8230910541F12CF4009749F097
:1000C0000197A9F04FC08330910569F10497C9F1F8
:1000D00049C08FE890E00E9434032FE38DE093E065
:1000E000215080409040E1F700C000003BC08FE904
:1000F00090E00E9434032FE38DE093E02150804094
:100100009040E1F700C000002DC08FEA90E00E940F
:1001100034032FE38DE093E0215080409040E1F7DD
:1001200000C000001FC08FEB90E00E9434032FE35B
:100130008DE093E0215080409040E1F700C0000046
:1001400011C08FEC90E00E94340380EE90E00E949A
:1001500034032FE38DE093E0215080409040E1F79D
:1001600000C000000E942703089580914001813063
:1001700041F51092420180914001813011F580914A
:1001800042018031F4F40E94270360914201809182
:1001900041010E94C00280E30E94170381E0909118
:1001A0004101911180E08093410183E294EF019736
:1001B000F1F700C00000809142018F5F80934201FF
:1001C000DACF80914001823049F58FE0809342017F
:1001D00080914001823011F5809142018823F4F032
:1001E0000E94270360914201809141010E94C00258
:1001F00080E30E94170381E090914101911180E01A
:100200008093410183E294EF0197F1F700C0000071
:1002100080914201815080934201DACF8091420166
:1002200080316CF090914001923049F06091510121
:100230006F5F6093510180E00E945104089588230C
:100240000CF093CF80914001813009F48ECF609102
:1002500050016F5F6093500181E00E945104089546
:1002600040E062E083E00E94ED0541E062E083E06F
:100270000E945F0640E063E083E00E94ED0541E0FC
:1002800063E083E00E945F060E94470280E690E000
:100290000E9446038CE00E94B20286E890E00E9431
:1002A000D10680E00E94610781E00E94610740E082
:1002B00060E070E089E490E00E94850741E060E042
:1002C00070E08DE490E00E94850781EF90E00E944D
:1002D000340360E080E00E94510460E081E00E940D
:1002E00051042FE78AE196E0215080409040E1F7E9
:1002F00000C000000E9427030E94230881E00895A7
:1003000008C010924001109242010E9451000E94C8
:10031000B50080915101833020F4909150019330C9
:1003200080F390915001981758F40E94270382E0BF
:1003300091E00E94340383E191E00E9434030AC0FB
:100340000E94270382E091E00E94340384E291E05E
:100350000E94340381E0089540E063E081E00E9460
:100360005F0683EC99E00197F1F700C0000041E0DF
:1003700063E081E00E945F060895CF93DF93C82F6A
:1003800040E062E081E00E945F0681116FC041E0C1
:1003900063E081E00E945F06811168C0DC2FD07F9E
:1003A0004D2F441F4427441F67E081E00E945F06F1
:1003B00081115CC0D6FB442740F966E081E00E94D1
:1003C0005F06811153C0D5FB442740F965E081E009
:1003D0000E945F0681114AC0D4FB442740F964E0C3
:1003E00081E00E945F06811141C00E94AC0189EF4B
:1003F00090E00197F1F700C00000C295C07F4C2F3C
:10040000441F4427441F67E081E00E945F0681117A
:100410002DC0C6FB442740F966E081E00E945F06DC
:10042000811124C0C5FB442740F965E081E00E94AA
:100430005F0681111BC0C4FB442740F964E081E0E2
:100440000E945F06811112C089EF90E00197F1F7D9
:1004500000C0000040E063E081E00E945F0689EF99
:1004600090E00197F1F700C0000080E0DF91CF91AC
:100470000895CF93C82F40E061E081E00E945F06BD
:10048000811103C08C2F0E94BD01CF91089541E0DE
:1004900061E081E00E94ED05811163C041E062E00E
:1004A00081E00E94ED0581115CC041E063E081E0E4
:1004B0000E94ED05811155C041E067E081E00E9496
:1004C000ED0581114EC041E066E081E00E94ED053E
:1004D000811147C041E065E081E00E94ED05811196
:1004E00040C041E064E081E00E94ED05811139C027
:1004F0008DE292E20197F1F700C0000083E30E94D1
:10050000390282E30E94390288E20E943902811195
:1005100028C089EF90E00197F1F700C000008FE05C
:100520000E94390281111DC089EF90E00197F1F717
:1005300000C0000081E00E943902811112C083EFE7
:1005400091E00197F1F700C0000086E00E943902B7
:10055000811107C089EF90E00197F1F700C000001A
:1005600080E00895CF93C82F40E061E081E00E94D1
:100570005F06811103C08C2F0E94BD01CF910895A9
:10058000CF93DF93603140F5C62F811111C0D0E8C1
:10059000D60F40E061E081E00E945F06811103C058
:1005A0008D2F0E94BD0181111AC0C093430117C055
:1005B0008130A1F4D0ECD60F40E061E00E945F06EC
:1005C000811103C08D2F0E94BD01811108C060E11F
:1005D0006C0F6093430103C080E001C080E0DF91B5
:1005E000CF91089580914301803151F460E081E022
:1005F0000E94C002809143018F5F80934301089560
:10060000803289F440E061E081E00E945F06811160
:1006100003C081E00E94BD0160E080E00E94C00252
:100620001092430108958F5F809343010895CF9303
:10063000C82F0E94F20241E061E081E00E945F0663
:10064000811103C08C2F0E94BD01CF91089540E01D
:1006500061E081E00E945F06811103C081E00E9499
:10066000BD01109243010895CF93DF93EC01892BD4
:1006700039F482E008C00E941703811104C021965A
:1006800088818111F8CFDF91CF9108953F924F92E9
:100690005F926F927F928F929F92AF92BF92CF9212
:1006A000DF92EF92FF920F931F93CF93DF93009708
:1006B00009F0BDC082E0E3C0E80123E1329EC00D35
:1006C000D11D112441E0698188810E94ED05C82A6D
:1006D00041E06B818A810E94ED0590E0880F991FAF
:1006E000880F991F880F991F092E000CAA0BBB0BAE
:1006F000C82AD92AEA2AFB2A41E06D818C810E940E
:10070000ED0520E4829FC00111242C01990F660899
:100710007708C428D528E628F72841E06F818E8124
:100720000E94ED05482E512C542C4424550C052CC8
:10073000000C66087708C428D528E628F72841E089
:10074000698588850E94ED05482E512C542C44243F
:10075000550C550C550C550C052C000C66087708EB
:100760004C285D286E287F2841E06B858A850E9491
:10077000ED05C82ED12CDD24C694D794CC240D2CA5
:10078000000CEE08FF084601570184289528A6288A
:10079000B72841E06D858C850E94ED05C82ED12CCF
:1007A000DD24CC240D2C000CEE08FF08C828D92825
:1007B000EA28FB288E858A30B1F06F856A30C1F057
:1007C00041E00E94ED0590E099278827092E000C52
:1007D000AA0BBB0BC82AD92AEA2AFB2A0F2EF5E15D
:1007E000BF2EF02D09C00F2EF2E1BF2EF02D04C058
:1007F0000F2EF2E1BF2EF02D88898A30B1F0698981
:100800006A3099F041E00E94ED0523E02B0D90E065
:1008100002C0880F991F2A95E2F7092E000CAA0B37
:10082000BB0BC82AD92AEA2AFB2A339405C08C01BB
:10083000C12CD12C7601312C81E0831508F03CCFFE
:1008400090E019C0B701A601082E04C076956795FF
:10085000579547950A94D2F747705527662777270B
:10086000452B462B472B51F48D5F01C080E0803231
:1008700048F39F5F80E09230C8F301C081E0DF91D0
:10088000CF911F910F91FF90EF90DF90CF90BF908D
:10089000AF909F908F907F906F905F904F903F9020
:1008A00008954F925F926F927F928F929F92AF9234
:1008B000BF92CF92DF92EF92FF920F931F93CF934D
:1008C000DF93823008F06EC16A3008F06DC190E0AD
:1008D00023E1289FF001299FF00D1124E05AFF4FDA
:1008E0002289253009F0A8C0E62FF0E0EB5CFE4F2E
:1008F000708011E0472D4127417023E1289FE001DE
:10090000299FD00D1124C05ADF4F698188810E9430
:100910005F06882E912CA12CB12C472D469541279E
:1009200041706B818A810E945F06C82ED12CCC0C4D
:10093000DD1CCC0CDD1CCC0CDD1C0D2C000CEE08E1
:10094000FF08C828D928EA28FB28472D4695469550
:10095000412741706D818C810E945F0620E4829F57
:10096000C0011124092E000CAA0BBB0BC82AD92ADE
:10097000EA2AFB2A472D4695469546954127417020
:100980006F818E810E945F06882E912C982C88247E
:10099000990C092C000CAA08BB08C828D928EA28F9
:1009A000FB28472D42954F70412741706985888506
:1009B0000E945F06882E912C982C8824990C990C03
:1009C000990C990CC401990CAA0BBB0B4C015D014D
:1009D0008C289D28AE28BF28472D42954695477004
:1009E000412741706B858A850E945F06C82ED12CF5
:1009F000DD24C694D794CC240D2C000CEE08FF08FF
:100A0000C828D928EA28FB28472D429546954695BF
:100A10004370412741706D858C850E945F06082FC9
:100A200010E011270027012E000C220B330B0C299C
:100A30001D292E293F299DC0263009F097C0E62F99
:100A4000F0E0EB5CFE4F1081412F417023E1289FC5
:100A5000E001299FD00D1124C05ADF4F69818881A0
:100A60000E945F06C82ED12CE12CF12C11FB4427EB
:100A700040F96B818A810E945F06482E512C440CFC
:100A8000551C440C551C440C551C052C000C6608C8
:100A90007708C428D528E628F72812FB442740F910
:100AA0006D818C810E945F0620E4829FC001112429
:100AB0002C01990F66087708C428D528E628F7285E
:100AC00013FB442740F96F818E810E945F06482EF8
:100AD000512C542C4424550C052C000C6608770826
:100AE0004C285D286E287F2814FB442740F969852F
:100AF00088850E945F06C82ED12CDC2CCC24DD0C0E
:100B0000DD0CDD0CDD0C0D2C000CEE08FF084601A1
:100B1000570184289528A628B72815FB442740F9B3
:100B20006B858A850E945F06C82ED12CDD24C69471
:100B3000D794CC240D2C000CEE08FF08C828D92827
:100B4000EA28FB2816FB442740F96D858C850E9416
:100B50005F06082F10E011270027012E000C220B42
:100B6000330B0C291D292E293F2903C000E010E07A
:100B7000980180E013C0B901A801082E04C0769541
:100B80006795579547950A94D2F74770552766277A
:100B90007727452B462B472B49F48D5F803258F33E
:100BA00080E005C083E003C083E001C081E0DF9105
:100BB000CF911F910F91FF90EF90DF90CF90BF905A
:100BC000AF909F908F907F906F905F904F9008951F
:100BD0000E9430010E948001FFCF843008F067C07E
:100BE000683008F066C0423008F065C08130E9F036
:100BF00030F0823081F1833009F443C05EC081E07F
:100C000090E0062E02C0880F991F0A94E2F78095A3
:100C10002AB32823842F90E002C0880F991F6A9579
:100C2000E2F7822B8ABB80E0089521E030E0062EB7
:100C300002C0220F331F0A94E2F7209587B32823BE
:100C4000842F90E002C0880F991F6A95E2F7822BEB
:100C500087BB80E0089521E030E0062E02C0220F1D
:100C6000331F0A94E2F7209584B32823842F90E061
:100C700002C0880F991F6A95E2F7822B84BB80E03F
:100C8000089521E030E0062E02C0220F331F0A949F
:100C9000E2F7209581B32823842F90E002C0880FCB
:100CA000991F6A95E2F7822B81BB80E0089583E06B
:100CB000089583E0089583E0089580E008958430E6
:100CC00008F067C0683008F066C0423008F065C0C0
:100CD0008130E9F030F0823081F1833009F443C093
:100CE0005EC081E090E0062E02C0880F991F0A9432
:100CF000E2F780952BB32823842F90E002C0880F61
:100D0000991F6A95E2F7822B8BBB80E0089521E062
:100D100030E0062E02C0220F331F0A94E2F720951E
:100D200088B32823842F90E002C0880F991F6A950A
:100D3000E2F7822B88BB80E0089521E030E0062EA8
:100D400002C0220F331F0A94E2F7209585B32823AF
:100D5000842F90E002C0880F991F6A95E2F7822BDA
:100D600085BB80E0089521E030E0062E02C0220F0E
:100D7000331F0A94E2F7209582B32823842F90E052
:100D800002C0880F991F6A95E2F7822B82BB80E030
:100D9000089583E0089583E0089583E0089580E056
:100DA0000895AC01892B09F086C082E00895E92FEF
:100DB000F0E09F01220F331FE20FF31FE40FF51F36
:100DC0002081213081F120F0223009F457C06AC01F
:100DD000218121116EC025B72C7F25BF22812130B2
:100DE00069F028F0223089F02330B1F05DC025B7DA
:100DF0002E7F25BF25B72D7F25BF5BC025B721607E
:100E000025BF25B72D7F25BF54C025B72E7F25BF11
:100E100025B7226025BF4DC025B7216025BF25B766
:100E2000226025BF46C02181211143C025B7237F01
:100E300025BF2281213069F028F0223089F023304B
:100E4000B1F034C025B72B7F25BF25B7277F25BF3D
:100E500030C025B7246025BF25B7277F25BF29C00F
:100E600025B72B7F25BF25B7286025BF22C025B712
:100E7000246025BF25B7286025BF1BC02181211113
:100E800018C024B72F7B24BF2281223019F02330D1
:100E900029F00EC024B72F7B24BF0BC024B72064D9
:100EA00024BF07C083E005C083E003C083E001C026
:100EB00083E09F5F02C090E081E0933008F477CF39
:100EC00008958330F0F4813061F018F0823089F0B9
:100ED0001AC08BB78F7B8BBF8BB780648BBF81E0D1
:100EE00008958BB78F778BBF8BB780688BBF81E0FE
:100EF00008958BB78F7D8BBF8BB780628BBF81E0EE
:100F0000089583E0089581E00895009789F04330C3
:100F100088F450E0440F551FFA01E65BFE4F9183C1
:100F20008083FA01EC5BFE4F7183608380E008955B
:100F300082E0089583E008951F920F920FB60F92FA
:100F400011242F933F934F935F936F937F938F93CE
:100F50009F93AF93BF93EF93FF93E0914A01F0917A
:100F60004B01309729F080914401909145010995FA
:100F7000FF91EF91BF91AF919F918F917F916F9171
:100F80005F914F913F912F910F900FBE0F901F9047
:100F900018951F920F920FB60F9211242F933F9323
:100FA0004F935F936F937F938F939F93AF93BF9371
:100FB000EF93FF93E0914C01F0914D01309729F0B0
:100FC00080914601909147010995FF91EF91BF9162
:100FD000AF919F918F917F916F915F914F913F91D1
:100FE0002F910F900FBE0F901F9018951F920F9288
:100FF0000FB60F9211242F933F934F935F936F93EC
:101000007F938F939F93AF93BF93EF93FF93E09161
:101010004E01F0914F01309729F080914801909155
:1010200049010995FF91EF91BF91AF919F918F91E8
:101030007F916F915F914F913F912F910F900FBED4
:101040000F901F9018958FB78F778FBF8FB78068DD
:0A1050008FBF80E00895F894FFCFF1
:10105A0000000001000200030004000500060A0A5D
:10106A000A0A06020002010202020302040205023F
:10107A00060A0A0A0A06000001010001020100200C
:10108A00202031737420526F756E64202020002056
:10109A002020326E6420526F756E6420202000205A
:1010AA00202033726420526F756E64202020002045
:1010BA00202034746820526F756E6420202000202E
:1010CA00202035746820526F756E6420202020001D
:1010DA002020204C61737420526F756E642020208A
:1010EA00002450494E4720504F4E472047414D4516
:1010FA002400202020202057696E6E65722020204F
:10110A00202000202020506C61796572204F6E6586
:10111A0020202000202020506C61796572205477AD
:10112A006F202020003F065B4F666D7D077F6F00B2
:00000001FF
